{"contracts/TrustChain.sol":{"TrustChain":{"abi":[{"inputs":[],"stateMutability":"nonpayable","type":"constructor"},{"anonymous":false,"inputs":[{"indexed":true,"internalType":"string","name":"productId","type":"string"},{"indexed":true,"internalType":"string","name":"boxId","type":"string"}],"name":"ProductRegistered","type":"event"},{"anonymous":false,"inputs":[{"indexed":true,"internalType":"string","name":"productId","type":"string"}],"name":"ProductShipped","type":"event"},{"anonymous":false,"inputs":[{"indexed":true,"internalType":"string","name":"productId","type":"string"}],"name":"ProductSold","type":"event"},{"anonymous":false,"inputs":[{"indexed":true,"internalType":"string","name":"productId","type":"string"}],"name":"ProductSystemVerified","type":"event"},{"anonymous":false,"inputs":[{"indexed":true,"internalType":"string","name":"productId","type":"string"}],"name":"ProductVerified","type":"event"},{"inputs":[{"internalType":"string","name":"_productId","type":"string"}],"name":"getProduct","outputs":[{"components":[{"internalType":"string","name":"productId","type":"string"},{"internalType":"string","name":"boxId","type":"string"},{"internalType":"string","name":"name","type":"string"},{"internalType":"string","name":"category","type":"string"},{"internalType":"string","name":"manufacturer","type":"string"},{"internalType":"string","name":"manufacturerDate","type":"string"},{"internalType":"string","name":"manufacturePlace","type":"string"},{"internalType":"string","name":"modelNumber","type":"string"},{"internalType":"string","name":"serialNumber","type":"string"},{"internalType":"string","name":"warrantyPeriod","type":"string"},{"internalType":"string","name":"batchNumber","type":"string"},{"internalType":"string","name":"color","type":"string"},{"internalType":"string","name":"specs","type":"string"},{"internalType":"uint256","name":"price","type":"uint256"},{"internalType":"string","name":"image","type":"string"},{"internalType":"bool","name":"shipped","type":"bool"},{"internalType":"bool","name":"verifiedByRetailer","type":"bool"},{"internalType":"bool","name":"sold","type":"bool"},{"internalType":"bool","name":"verifiedBySystem","type":"bool"}],"internalType":"struct TrustChain.Product","name":"","type":"tuple"}],"stateMutability":"view","type":"function"},{"inputs":[{"internalType":"string","name":"_boxId","type":"string"}],"name":"getProductsByBox","outputs":[{"internalType":"string[]","name":"","type":"string[]"}],"stateMutability":"view","type":"function"},{"inputs":[],"name":"owner","outputs":[{"internalType":"address","name":"","type":"address"}],"stateMutability":"view","type":"function"},{"inputs":[{"internalType":"string","name":"_productId","type":"string"},{"internalType":"string","name":"_boxId","type":"string"},{"internalType":"string","name":"_name","type":"string"},{"internalType":"string","name":"_category","type":"string"},{"internalType":"string","name":"_manufacturer","type":"string"},{"internalType":"string","name":"_manufacturerDate","type":"string"},{"internalType":"string","name":"_manufacturePlace","type":"string"},{"internalType":"string","name":"_modelNumber","type":"string"},{"internalType":"string","name":"_serialNumber","type":"string"},{"internalType":"string","name":"_warrantyPeriod","type":"string"},{"internalType":"string","name":"_batchNumber","type":"string"},{"internalType":"string","name":"_color","type":"string"},{"internalType":"string","name":"_specs","type":"string"},{"internalType":"uint256","name":"_price","type":"uint256"},{"internalType":"string","name":"_image","type":"string"}],"name":"registerProduct","outputs":[],"stateMutability":"nonpayable","type":"function"},{"inputs":[{"internalType":"string","name":"_productId","type":"string"}],"name":"saleComplete","outputs":[],"stateMutability":"nonpayable","type":"function"},{"inputs":[{"internalType":"string","name":"_productId","type":"string"}],"name":"shipProduct","outputs":[],"stateMutability":"nonpayable","type":"function"},{"inputs":[{"internalType":"string","name":"_productId","type":"string"}],"name":"verifyBySystem","outputs":[],"stateMutability":"nonpayable","type":"function"},{"inputs":[{"internalType":"string","name":"_productId","type":"string"}],"name":"verifyRetailer","outputs":[],"stateMutability":"nonpayable","type":"function"}],"evm":{"bytecode":{"linkReferences":{},"object":"6080806040523461002857600080546001600160a01b03191633179055611049908161002e8239f35b600080fdfe6080604052600436101561001257600080fd5b60003560e01c80631768850f14610c4a578063289496bb14610b3c5780634e260d3c146106c457806368111cce146102e55780638da5cb5b146102bc578063d15bd3cb146101d7578063ef7ac6ba1461013b5763f6e2b1ad1461007457600080fd5b346101365760203660031901126101365760043567ffffffffffffffff8111610136576100a861010f913690600401610d27565b600f6100f460206040516100e36100dc8651928481818a01956100cc818389610d7e565b8101600181520301902054610dc6565b1515610f30565b604051809381928751928391610d7e565b8101600181520301902001600160ff19825416179055610f10565b7f9dbe2d347001eec4f99473edc6161746246c3bd920ebc7aec9ea509774a6a87c600080a2005b600080fd5b346101365760203660031901126101365760043567ffffffffffffffff81116101365761016f6101b0913690600401610d27565b600f61019360206040516100e36100dc8651928481818a01956100cc818389610d7e565b810160018152030190200161010061ff0019825416179055610f10565b7f9bb3d92ff53ce504ee358d5ff79f13221b4836773184e8ec3e9e299f7d032aee600080a2005b346101365760203660031901126101365760043567ffffffffffffffff811161013657610208903690600401610d27565b6000546001600160a01b0316330361028a5761026390600f61024260206040516100e36100dc8651928481818a01956100cc818389610d7e565b8101600181520301902001630100000063ff00000019825416179055610f10565b7f7d8a41247edd77a402ab86adc7161f72221dda94f4f8e55c05267db2f3723932600080a2005b60405162461bcd60e51b815260206004820152600a60248201526927b7363c9037bbb732b960b11b6044820152606490fd5b34610136576000366003190112610136576000546040516001600160a01b039091168152602090f35b346101365760203660031901126101365760043567ffffffffffffffff811161013657602061031b6103c0923690600401610d27565b600061024060405161032c81610ce8565b606081526060858201526060604082015260608082015260606080820152606060a0820152606060c0820152606060e082015260606101008201526060610120820152606061014082015260606101608201526060610180820152826101a082015260606101c0820152826101e0820152826102008201528261022082015201528160405193828580945193849201610d7e565b8101600181520301902060ff600f604051926103db84610ce8565b6103e481610f6d565b84526103f260018201610f6d565b602085015261040360028201610f6d565b604085015261041460038201610f6d565b606085015261042560048201610f6d565b608085015261043660058201610f6d565b60a085015261044760068201610f6d565b60c085015261045860078201610f6d565b60e085015261046960088201610f6d565b61010085015261047b60098201610f6d565b61012085015261048d600a8201610f6d565b61014085015261049f600b8201610f6d565b6101608501526104b1600c8201610f6d565b610180850152600d8101546101a08501526104ce600e8201610f6d565b6101c0850152015481811615156101e0840152818160081c161515610200840152818160101c16151561022084015260181c16151561024082015260405180916020825261024061068d6106696106516106396106216106096105f16105da6105c46105ae8b8d608061059961058461056e61055886516102606020880152610280870190610da1565b6020870151868203601f19016040880152610da1565b6040860151858203601f19016060870152610da1565b6060850151848203601f190184860152610da1565b9201519060a0601f1982850301910152610da1565b60a08c01518d8203601f190160c08f0152610da1565b60c08b01518c8203601f190160e08e0152610da1565b60e08a01518b8203601f19016101008d0152610da1565b6101008901518a8203601f19016101208c0152610da1565b610120880151898203601f19016101408b0152610da1565b610140870151888203601f19016101608a0152610da1565b610160860151878203601f1901610180890152610da1565b610180850151868203601f19016101a0880152610da1565b6101a08401516101c08601526101c0840151601f19868303016101e0870152610da1565b916101e081015115156102008501526102008101511515610220850152610220810151151582850152015115156102608301520390f35b34610136576101e03660031901126101365767ffffffffffffffff600435818111610136576106f7903690600401610d27565b6024358281116101365761070f903690600401610d27565b9160443581811161013657610728903690600401610d27565b9060643581811161013657610741903690600401610d27565b60843582811161013657610759903690600401610d27565b60a43583811161013657610771903690600401610d27565b60c43584811161013657610789903690600401610d27565b60e435858111610136576107a1903690600401610d27565b61010435868111610136576107ba903690600401610d27565b9061012435878111610136576107d4903690600401610d27565b9261014435888111610136576107ee903690600401610d27565b946101643589811161013657610808903690600401610d27565b96610184358a811161013657610822903690600401610d27565b986101c4359a8b116101365761085a6100cc60208f9d610846903690600401610d27565b9d8160405193828580945193849201610d7e565b610b06578c9b8e60206040519e8f9061087282610ce8565b8152015260408d015260608c015260808b015260a08a015260c089015260e08801526101008701526101208601526101408501526101608401526101808301526101a4356101a08301526101c082015260006101e0820152600061020082015260006102208201526000610240820152600f60405160208185516108f98183858a01610d7e565b8101600181520301902061090e835182610e00565b61091f602084015160018301610e00565b610930604084015160028301610e00565b610941606084015160038301610e00565b610952608084015160048301610e00565b61096360a084015160058301610e00565b61097460c084015160068301610e00565b61098560e084015160078301610e00565b61099761010084015160088301610e00565b6109a961012084015160098301610e00565b6109bb610140840151600a8301610e00565b6109cd610160840151600b8301610e00565b6109df610180840151600c8301610e00565b6101a0830151600d8201556109fc6101c0840151600e8301610e00565b01906101e0810151151590825461ff00610200830151151560081b169060ff63ff00000061024062ff0000610220870151151560101b16950151151560181b1694169063ffffffff19161717171790556040516020818451610a618183858901610d7e565b8101600281520301902080549168010000000000000000831015610af05760018301808355831015610ada57610aa781610ab294610aac94600052602060002001610e00565b610f10565b91610f10565b907f05c683c8ef124ed98b107dcf80c644abc011626816b5b3a73e3f6d518c0cd778600080a3005b634e487b7160e01b600052603260045260246000fd5b634e487b7160e01b600052604160045260246000fd5b60405162461bcd60e51b815260206004820152600e60248201526d416c72656164792065786973747360901b6044820152606490fd5b34610136576020806003193601126101365767ffffffffffffffff6004358181116101365782610b73610b86923690600401610d27565b8160405193828580945193849201610d7e565b810160028152030190208054918211610af057829060405192610bae838260051b0185610d05565b8084528284018092600052836000206000915b838310610c285750505050604051918083019381845251809452604083019360408160051b85010192916000955b828710610bfc5785850386f35b909192938280610c18600193603f198a82030186528851610da1565b9601920196019592919092610bef565b6001868192610c39859a999a610f6d565b815201920192019190959495610bc1565b346101365760203660031901126101365760043567ffffffffffffffff811161013657610c7e610cc1913690600401610d27565b600f610ca260206040516100e36100dc8651928481818a01956100cc818389610d7e565b81016001815203019020016201000062ff000019825416179055610f10565b7f4e4003378fe790a19a351b9848e06179b5d6e7a3262a28cfc05f8bacba35857a600080a2005b610260810190811067ffffffffffffffff821117610af057604052565b90601f8019910116810190811067ffffffffffffffff821117610af057604052565b81601f820112156101365780359067ffffffffffffffff8211610af05760405192610d5c601f8401601f191660200185610d05565b8284526020838301011161013657816000926020809301838601378301015290565b60005b838110610d915750506000910152565b8181015183820152602001610d81565b90602091610dba81518092818552858086019101610d7e565b601f01601f1916010190565b90600182811c92168015610df6575b6020831014610de057565b634e487b7160e01b600052602260045260246000fd5b91607f1691610dd5565b919091825167ffffffffffffffff8111610af057610e1e8254610dc6565b601f8111610ec8575b50602080601f8311600114610e64575081929394600092610e59575b50508160011b916000199060031b1c1916179055565b015190503880610e43565b90601f198316958460005282600020926000905b888210610eb057505083600195969710610e97575b505050811b019055565b015160001960f88460031b161c19169055388080610e8d565b80600185968294968601518155019501930190610e78565b600083815260208120601f840160051c81019260208510610f06575b601f0160051c01915b828110610efb575050610e27565b818155600101610eed565b9092508290610ee4565b610f2890602060405192828480945193849201610d7e565b810103902090565b15610f3757565b60405162461bcd60e51b815260206004820152600e60248201526d139bdd081c9959da5cdd195c995960921b6044820152606490fd5b9060405191826000825492610f8184610dc6565b908184526001948581169081600014610ff05750600114610fad575b5050610fab92500383610d05565b565b9093915060005260209081600020936000915b818310610fd8575050610fab93508201013880610f9d565b85548884018501529485019487945091830191610fc0565b915050610fab94506020925060ff191682840152151560051b8201013880610f9d56fea2646970667358221220b4df53de1ee73d4138a1d85abe25c2e8a559cf4859ab2f0e0393a6b6113cc2e364736f6c63430008140033","opcodes":"PUSH1 0x80 DUP1 PUSH1 0x40 MSTORE CALLVALUE PUSH2 0x28 JUMPI PUSH1 0x0 DUP1 SLOAD PUSH1 0x1 PUSH1 0x1 PUSH1 0xA0 SHL SUB NOT AND CALLER OR SWAP1 SSTORE PUSH2 0x1049 SWAP1 DUP2 PUSH2 0x2E DUP3 CODECOPY RETURN JUMPDEST PUSH1 0x0 DUP1 REVERT INVALID PUSH1 0x80 PUSH1 0x40 MSTORE PUSH1 0x4 CALLDATASIZE LT ISZERO PUSH2 0x12 JUMPI PUSH1 0x0 DUP1 REVERT JUMPDEST PUSH1 0x0 CALLDATALOAD PUSH1 0xE0 SHR DUP1 PUSH4 0x1768850F EQ PUSH2 0xC4A JUMPI DUP1 PUSH4 0x289496BB EQ PUSH2 0xB3C JUMPI DUP1 PUSH4 0x4E260D3C EQ PUSH2 0x6C4 JUMPI DUP1 PUSH4 0x68111CCE EQ PUSH2 0x2E5 JUMPI DUP1 PUSH4 0x8DA5CB5B EQ PUSH2 0x2BC JUMPI DUP1 PUSH4 0xD15BD3CB EQ PUSH2 0x1D7 JUMPI DUP1 PUSH4 0xEF7AC6BA EQ PUSH2 0x13B JUMPI PUSH4 0xF6E2B1AD EQ PUSH2 0x74 JUMPI PUSH1 0x0 DUP1 REVERT JUMPDEST CALLVALUE PUSH2 0x136 JUMPI PUSH1 0x20 CALLDATASIZE PUSH1 0x3 NOT ADD SLT PUSH2 0x136 JUMPI PUSH1 0x4 CALLDATALOAD PUSH8 0xFFFFFFFFFFFFFFFF DUP2 GT PUSH2 0x136 JUMPI PUSH2 0xA8 PUSH2 0x10F SWAP2 CALLDATASIZE SWAP1 PUSH1 0x4 ADD PUSH2 0xD27 JUMP JUMPDEST PUSH1 0xF PUSH2 0xF4 PUSH1 0x20 PUSH1 0x40 MLOAD PUSH2 0xE3 PUSH2 0xDC DUP7 MLOAD SWAP3 DUP5 DUP2 DUP2 DUP11 ADD SWAP6 PUSH2 0xCC DUP2 DUP4 DUP10 PUSH2 0xD7E JUMP JUMPDEST DUP2 ADD PUSH1 0x1 DUP2 MSTORE SUB ADD SWAP1 KECCAK256 SLOAD PUSH2 0xDC6 JUMP JUMPDEST ISZERO ISZERO PUSH2 0xF30 JUMP JUMPDEST PUSH1 0x40 MLOAD DUP1 SWAP4 DUP2 SWAP3 DUP8 MLOAD SWAP3 DUP4 SWAP2 PUSH2 0xD7E JUMP JUMPDEST DUP2 ADD PUSH1 0x1 DUP2 MSTORE SUB ADD SWAP1 KECCAK256 ADD PUSH1 0x1 PUSH1 0xFF NOT DUP3 SLOAD AND OR SWAP1 SSTORE PUSH2 0xF10 JUMP JUMPDEST PUSH32 0x9DBE2D347001EEC4F99473EDC6161746246C3BD920EBC7AEC9EA509774A6A87C PUSH1 0x0 DUP1 LOG2 STOP JUMPDEST PUSH1 0x0 DUP1 REVERT JUMPDEST CALLVALUE PUSH2 0x136 JUMPI PUSH1 0x20 CALLDATASIZE PUSH1 0x3 NOT ADD SLT PUSH2 0x136 JUMPI PUSH1 0x4 CALLDATALOAD PUSH8 0xFFFFFFFFFFFFFFFF DUP2 GT PUSH2 0x136 JUMPI PUSH2 0x16F PUSH2 0x1B0 SWAP2 CALLDATASIZE SWAP1 PUSH1 0x4 ADD PUSH2 0xD27 JUMP JUMPDEST PUSH1 0xF PUSH2 0x193 PUSH1 0x20 PUSH1 0x40 MLOAD PUSH2 0xE3 PUSH2 0xDC DUP7 MLOAD SWAP3 DUP5 DUP2 DUP2 DUP11 ADD SWAP6 PUSH2 0xCC DUP2 DUP4 DUP10 PUSH2 0xD7E JUMP JUMPDEST DUP2 ADD PUSH1 0x1 DUP2 MSTORE SUB ADD SWAP1 KECCAK256 ADD PUSH2 0x100 PUSH2 0xFF00 NOT DUP3 SLOAD AND OR SWAP1 SSTORE PUSH2 0xF10 JUMP JUMPDEST PUSH32 0x9BB3D92FF53CE504EE358D5FF79F13221B4836773184E8EC3E9E299F7D032AEE PUSH1 0x0 DUP1 LOG2 STOP JUMPDEST CALLVALUE PUSH2 0x136 JUMPI PUSH1 0x20 CALLDATASIZE PUSH1 0x3 NOT ADD SLT PUSH2 0x136 JUMPI PUSH1 0x4 CALLDATALOAD PUSH8 0xFFFFFFFFFFFFFFFF DUP2 GT PUSH2 0x136 JUMPI PUSH2 0x208 SWAP1 CALLDATASIZE SWAP1 PUSH1 0x4 ADD PUSH2 0xD27 JUMP JUMPDEST PUSH1 0x0 SLOAD PUSH1 0x1 PUSH1 0x1 PUSH1 0xA0 SHL SUB AND CALLER SUB PUSH2 0x28A JUMPI PUSH2 0x263 SWAP1 PUSH1 0xF PUSH2 0x242 PUSH1 0x20 PUSH1 0x40 MLOAD PUSH2 0xE3 PUSH2 0xDC DUP7 MLOAD SWAP3 DUP5 DUP2 DUP2 DUP11 ADD SWAP6 PUSH2 0xCC DUP2 DUP4 DUP10 PUSH2 0xD7E JUMP JUMPDEST DUP2 ADD PUSH1 0x1 DUP2 MSTORE SUB ADD SWAP1 KECCAK256 ADD PUSH4 0x1000000 PUSH4 0xFF000000 NOT DUP3 SLOAD AND OR SWAP1 SSTORE PUSH2 0xF10 JUMP JUMPDEST PUSH32 0x7D8A41247EDD77A402AB86ADC7161F72221DDA94F4F8E55C05267DB2F3723932 PUSH1 0x0 DUP1 LOG2 STOP JUMPDEST PUSH1 0x40 MLOAD PUSH3 0x461BCD PUSH1 0xE5 SHL DUP2 MSTORE PUSH1 0x20 PUSH1 0x4 DUP3 ADD MSTORE PUSH1 0xA PUSH1 0x24 DUP3 ADD MSTORE PUSH10 0x27B7363C9037BBB732B9 PUSH1 0xB1 SHL PUSH1 0x44 DUP3 ADD MSTORE PUSH1 0x64 SWAP1 REVERT JUMPDEST CALLVALUE PUSH2 0x136 JUMPI PUSH1 0x0 CALLDATASIZE PUSH1 0x3 NOT ADD SLT PUSH2 0x136 JUMPI PUSH1 0x0 SLOAD PUSH1 0x40 MLOAD PUSH1 0x1 PUSH1 0x1 PUSH1 0xA0 SHL SUB SWAP1 SWAP2 AND DUP2 MSTORE PUSH1 0x20 SWAP1 RETURN JUMPDEST CALLVALUE PUSH2 0x136 JUMPI PUSH1 0x20 CALLDATASIZE PUSH1 0x3 NOT ADD SLT PUSH2 0x136 JUMPI PUSH1 0x4 CALLDATALOAD PUSH8 0xFFFFFFFFFFFFFFFF DUP2 GT PUSH2 0x136 JUMPI PUSH1 0x20 PUSH2 0x31B PUSH2 0x3C0 SWAP3 CALLDATASIZE SWAP1 PUSH1 0x4 ADD PUSH2 0xD27 JUMP JUMPDEST PUSH1 0x0 PUSH2 0x240 PUSH1 0x40 MLOAD PUSH2 0x32C DUP2 PUSH2 0xCE8 JUMP JUMPDEST PUSH1 0x60 DUP2 MSTORE PUSH1 0x60 DUP6 DUP3 ADD MSTORE PUSH1 0x60 PUSH1 0x40 DUP3 ADD MSTORE PUSH1 0x60 DUP1 DUP3 ADD MSTORE PUSH1 0x60 PUSH1 0x80 DUP3 ADD MSTORE PUSH1 0x60 PUSH1 0xA0 DUP3 ADD MSTORE PUSH1 0x60 PUSH1 0xC0 DUP3 ADD MSTORE PUSH1 0x60 PUSH1 0xE0 DUP3 ADD MSTORE PUSH1 0x60 PUSH2 0x100 DUP3 ADD MSTORE PUSH1 0x60 PUSH2 0x120 DUP3 ADD MSTORE PUSH1 0x60 PUSH2 0x140 DUP3 ADD MSTORE PUSH1 0x60 PUSH2 0x160 DUP3 ADD MSTORE PUSH1 0x60 PUSH2 0x180 DUP3 ADD MSTORE DUP3 PUSH2 0x1A0 DUP3 ADD MSTORE PUSH1 0x60 PUSH2 0x1C0 DUP3 ADD MSTORE DUP3 PUSH2 0x1E0 DUP3 ADD MSTORE DUP3 PUSH2 0x200 DUP3 ADD MSTORE DUP3 PUSH2 0x220 DUP3 ADD MSTORE ADD MSTORE DUP2 PUSH1 0x40 MLOAD SWAP4 DUP3 DUP6 DUP1 SWAP5 MLOAD SWAP4 DUP5 SWAP3 ADD PUSH2 0xD7E JUMP JUMPDEST DUP2 ADD PUSH1 0x1 DUP2 MSTORE SUB ADD SWAP1 KECCAK256 PUSH1 0xFF PUSH1 0xF PUSH1 0x40 MLOAD SWAP3 PUSH2 0x3DB DUP5 PUSH2 0xCE8 JUMP JUMPDEST PUSH2 0x3E4 DUP2 PUSH2 0xF6D JUMP JUMPDEST DUP5 MSTORE PUSH2 0x3F2 PUSH1 0x1 DUP3 ADD PUSH2 0xF6D JUMP JUMPDEST PUSH1 0x20 DUP6 ADD MSTORE PUSH2 0x403 PUSH1 0x2 DUP3 ADD PUSH2 0xF6D JUMP JUMPDEST PUSH1 0x40 DUP6 ADD MSTORE PUSH2 0x414 PUSH1 0x3 DUP3 ADD PUSH2 0xF6D JUMP JUMPDEST PUSH1 0x60 DUP6 ADD MSTORE PUSH2 0x425 PUSH1 0x4 DUP3 ADD PUSH2 0xF6D JUMP JUMPDEST PUSH1 0x80 DUP6 ADD MSTORE PUSH2 0x436 PUSH1 0x5 DUP3 ADD PUSH2 0xF6D JUMP JUMPDEST PUSH1 0xA0 DUP6 ADD MSTORE PUSH2 0x447 PUSH1 0x6 DUP3 ADD PUSH2 0xF6D JUMP JUMPDEST PUSH1 0xC0 DUP6 ADD MSTORE PUSH2 0x458 PUSH1 0x7 DUP3 ADD PUSH2 0xF6D JUMP JUMPDEST PUSH1 0xE0 DUP6 ADD MSTORE PUSH2 0x469 PUSH1 0x8 DUP3 ADD PUSH2 0xF6D JUMP JUMPDEST PUSH2 0x100 DUP6 ADD MSTORE PUSH2 0x47B PUSH1 0x9 DUP3 ADD PUSH2 0xF6D JUMP JUMPDEST PUSH2 0x120 DUP6 ADD MSTORE PUSH2 0x48D PUSH1 0xA DUP3 ADD PUSH2 0xF6D JUMP JUMPDEST PUSH2 0x140 DUP6 ADD MSTORE PUSH2 0x49F PUSH1 0xB DUP3 ADD PUSH2 0xF6D JUMP JUMPDEST PUSH2 0x160 DUP6 ADD MSTORE PUSH2 0x4B1 PUSH1 0xC DUP3 ADD PUSH2 0xF6D JUMP JUMPDEST PUSH2 0x180 DUP6 ADD MSTORE PUSH1 0xD DUP2 ADD SLOAD PUSH2 0x1A0 DUP6 ADD MSTORE PUSH2 0x4CE PUSH1 0xE DUP3 ADD PUSH2 0xF6D JUMP JUMPDEST PUSH2 0x1C0 DUP6 ADD MSTORE ADD SLOAD DUP2 DUP2 AND ISZERO ISZERO PUSH2 0x1E0 DUP5 ADD MSTORE DUP2 DUP2 PUSH1 0x8 SHR AND ISZERO ISZERO PUSH2 0x200 DUP5 ADD MSTORE DUP2 DUP2 PUSH1 0x10 SHR AND ISZERO ISZERO PUSH2 0x220 DUP5 ADD MSTORE PUSH1 0x18 SHR AND ISZERO ISZERO PUSH2 0x240 DUP3 ADD MSTORE PUSH1 0x40 MLOAD DUP1 SWAP2 PUSH1 0x20 DUP3 MSTORE PUSH2 0x240 PUSH2 0x68D PUSH2 0x669 PUSH2 0x651 PUSH2 0x639 PUSH2 0x621 PUSH2 0x609 PUSH2 0x5F1 PUSH2 0x5DA PUSH2 0x5C4 PUSH2 0x5AE DUP12 DUP14 PUSH1 0x80 PUSH2 0x599 PUSH2 0x584 PUSH2 0x56E PUSH2 0x558 DUP7 MLOAD PUSH2 0x260 PUSH1 0x20 DUP9 ADD MSTORE PUSH2 0x280 DUP8 ADD SWAP1 PUSH2 0xDA1 JUMP JUMPDEST PUSH1 0x20 DUP8 ADD MLOAD DUP7 DUP3 SUB PUSH1 0x1F NOT ADD PUSH1 0x40 DUP9 ADD MSTORE PUSH2 0xDA1 JUMP JUMPDEST PUSH1 0x40 DUP7 ADD MLOAD DUP6 DUP3 SUB PUSH1 0x1F NOT ADD PUSH1 0x60 DUP8 ADD MSTORE PUSH2 0xDA1 JUMP JUMPDEST PUSH1 0x60 DUP6 ADD MLOAD DUP5 DUP3 SUB PUSH1 0x1F NOT ADD DUP5 DUP7 ADD MSTORE PUSH2 0xDA1 JUMP JUMPDEST SWAP3 ADD MLOAD SWAP1 PUSH1 0xA0 PUSH1 0x1F NOT DUP3 DUP6 SUB ADD SWAP2 ADD MSTORE PUSH2 0xDA1 JUMP JUMPDEST PUSH1 0xA0 DUP13 ADD MLOAD DUP14 DUP3 SUB PUSH1 0x1F NOT ADD PUSH1 0xC0 DUP16 ADD MSTORE PUSH2 0xDA1 JUMP JUMPDEST PUSH1 0xC0 DUP12 ADD MLOAD DUP13 DUP3 SUB PUSH1 0x1F NOT ADD PUSH1 0xE0 DUP15 ADD MSTORE PUSH2 0xDA1 JUMP JUMPDEST PUSH1 0xE0 DUP11 ADD MLOAD DUP12 DUP3 SUB PUSH1 0x1F NOT ADD PUSH2 0x100 DUP14 ADD MSTORE PUSH2 0xDA1 JUMP JUMPDEST PUSH2 0x100 DUP10 ADD MLOAD DUP11 DUP3 SUB PUSH1 0x1F NOT ADD PUSH2 0x120 DUP13 ADD MSTORE PUSH2 0xDA1 JUMP JUMPDEST PUSH2 0x120 DUP9 ADD MLOAD DUP10 DUP3 SUB PUSH1 0x1F NOT ADD PUSH2 0x140 DUP12 ADD MSTORE PUSH2 0xDA1 JUMP JUMPDEST PUSH2 0x140 DUP8 ADD MLOAD DUP9 DUP3 SUB PUSH1 0x1F NOT ADD PUSH2 0x160 DUP11 ADD MSTORE PUSH2 0xDA1 JUMP JUMPDEST PUSH2 0x160 DUP7 ADD MLOAD DUP8 DUP3 SUB PUSH1 0x1F NOT ADD PUSH2 0x180 DUP10 ADD MSTORE PUSH2 0xDA1 JUMP JUMPDEST PUSH2 0x180 DUP6 ADD MLOAD DUP7 DUP3 SUB PUSH1 0x1F NOT ADD PUSH2 0x1A0 DUP9 ADD MSTORE PUSH2 0xDA1 JUMP JUMPDEST PUSH2 0x1A0 DUP5 ADD MLOAD PUSH2 0x1C0 DUP7 ADD MSTORE PUSH2 0x1C0 DUP5 ADD MLOAD PUSH1 0x1F NOT DUP7 DUP4 SUB ADD PUSH2 0x1E0 DUP8 ADD MSTORE PUSH2 0xDA1 JUMP JUMPDEST SWAP2 PUSH2 0x1E0 DUP2 ADD MLOAD ISZERO ISZERO PUSH2 0x200 DUP6 ADD MSTORE PUSH2 0x200 DUP2 ADD MLOAD ISZERO ISZERO PUSH2 0x220 DUP6 ADD MSTORE PUSH2 0x220 DUP2 ADD MLOAD ISZERO ISZERO DUP3 DUP6 ADD MSTORE ADD MLOAD ISZERO ISZERO PUSH2 0x260 DUP4 ADD MSTORE SUB SWAP1 RETURN JUMPDEST CALLVALUE PUSH2 0x136 JUMPI PUSH2 0x1E0 CALLDATASIZE PUSH1 0x3 NOT ADD SLT PUSH2 0x136 JUMPI PUSH8 0xFFFFFFFFFFFFFFFF PUSH1 0x4 CALLDATALOAD DUP2 DUP2 GT PUSH2 0x136 JUMPI PUSH2 0x6F7 SWAP1 CALLDATASIZE SWAP1 PUSH1 0x4 ADD PUSH2 0xD27 JUMP JUMPDEST PUSH1 0x24 CALLDATALOAD DUP3 DUP2 GT PUSH2 0x136 JUMPI PUSH2 0x70F SWAP1 CALLDATASIZE SWAP1 PUSH1 0x4 ADD PUSH2 0xD27 JUMP JUMPDEST SWAP2 PUSH1 0x44 CALLDATALOAD DUP2 DUP2 GT PUSH2 0x136 JUMPI PUSH2 0x728 SWAP1 CALLDATASIZE SWAP1 PUSH1 0x4 ADD PUSH2 0xD27 JUMP JUMPDEST SWAP1 PUSH1 0x64 CALLDATALOAD DUP2 DUP2 GT PUSH2 0x136 JUMPI PUSH2 0x741 SWAP1 CALLDATASIZE SWAP1 PUSH1 0x4 ADD PUSH2 0xD27 JUMP JUMPDEST PUSH1 0x84 CALLDATALOAD DUP3 DUP2 GT PUSH2 0x136 JUMPI PUSH2 0x759 SWAP1 CALLDATASIZE SWAP1 PUSH1 0x4 ADD PUSH2 0xD27 JUMP JUMPDEST PUSH1 0xA4 CALLDATALOAD DUP4 DUP2 GT PUSH2 0x136 JUMPI PUSH2 0x771 SWAP1 CALLDATASIZE SWAP1 PUSH1 0x4 ADD PUSH2 0xD27 JUMP JUMPDEST PUSH1 0xC4 CALLDATALOAD DUP5 DUP2 GT PUSH2 0x136 JUMPI PUSH2 0x789 SWAP1 CALLDATASIZE SWAP1 PUSH1 0x4 ADD PUSH2 0xD27 JUMP JUMPDEST PUSH1 0xE4 CALLDATALOAD DUP6 DUP2 GT PUSH2 0x136 JUMPI PUSH2 0x7A1 SWAP1 CALLDATASIZE SWAP1 PUSH1 0x4 ADD PUSH2 0xD27 JUMP JUMPDEST PUSH2 0x104 CALLDATALOAD DUP7 DUP2 GT PUSH2 0x136 JUMPI PUSH2 0x7BA SWAP1 CALLDATASIZE SWAP1 PUSH1 0x4 ADD PUSH2 0xD27 JUMP JUMPDEST SWAP1 PUSH2 0x124 CALLDATALOAD DUP8 DUP2 GT PUSH2 0x136 JUMPI PUSH2 0x7D4 SWAP1 CALLDATASIZE SWAP1 PUSH1 0x4 ADD PUSH2 0xD27 JUMP JUMPDEST SWAP3 PUSH2 0x144 CALLDATALOAD DUP9 DUP2 GT PUSH2 0x136 JUMPI PUSH2 0x7EE SWAP1 CALLDATASIZE SWAP1 PUSH1 0x4 ADD PUSH2 0xD27 JUMP JUMPDEST SWAP5 PUSH2 0x164 CALLDATALOAD DUP10 DUP2 GT PUSH2 0x136 JUMPI PUSH2 0x808 SWAP1 CALLDATASIZE SWAP1 PUSH1 0x4 ADD PUSH2 0xD27 JUMP JUMPDEST SWAP7 PUSH2 0x184 CALLDATALOAD DUP11 DUP2 GT PUSH2 0x136 JUMPI PUSH2 0x822 SWAP1 CALLDATASIZE SWAP1 PUSH1 0x4 ADD PUSH2 0xD27 JUMP JUMPDEST SWAP9 PUSH2 0x1C4 CALLDATALOAD SWAP11 DUP12 GT PUSH2 0x136 JUMPI PUSH2 0x85A PUSH2 0xCC PUSH1 0x20 DUP16 SWAP14 PUSH2 0x846 SWAP1 CALLDATASIZE SWAP1 PUSH1 0x4 ADD PUSH2 0xD27 JUMP JUMPDEST SWAP14 DUP2 PUSH1 0x40 MLOAD SWAP4 DUP3 DUP6 DUP1 SWAP5 MLOAD SWAP4 DUP5 SWAP3 ADD PUSH2 0xD7E JUMP JUMPDEST PUSH2 0xB06 JUMPI DUP13 SWAP12 DUP15 PUSH1 0x20 PUSH1 0x40 MLOAD SWAP15 DUP16 SWAP1 PUSH2 0x872 DUP3 PUSH2 0xCE8 JUMP JUMPDEST DUP2 MSTORE ADD MSTORE PUSH1 0x40 DUP14 ADD MSTORE PUSH1 0x60 DUP13 ADD MSTORE PUSH1 0x80 DUP12 ADD MSTORE PUSH1 0xA0 DUP11 ADD MSTORE PUSH1 0xC0 DUP10 ADD MSTORE PUSH1 0xE0 DUP9 ADD MSTORE PUSH2 0x100 DUP8 ADD MSTORE PUSH2 0x120 DUP7 ADD MSTORE PUSH2 0x140 DUP6 ADD MSTORE PUSH2 0x160 DUP5 ADD MSTORE PUSH2 0x180 DUP4 ADD MSTORE PUSH2 0x1A4 CALLDATALOAD PUSH2 0x1A0 DUP4 ADD MSTORE PUSH2 0x1C0 DUP3 ADD MSTORE PUSH1 0x0 PUSH2 0x1E0 DUP3 ADD MSTORE PUSH1 0x0 PUSH2 0x200 DUP3 ADD MSTORE PUSH1 0x0 PUSH2 0x220 DUP3 ADD MSTORE PUSH1 0x0 PUSH2 0x240 DUP3 ADD MSTORE PUSH1 0xF PUSH1 0x40 MLOAD PUSH1 0x20 DUP2 DUP6 MLOAD PUSH2 0x8F9 DUP2 DUP4 DUP6 DUP11 ADD PUSH2 0xD7E JUMP JUMPDEST DUP2 ADD PUSH1 0x1 DUP2 MSTORE SUB ADD SWAP1 KECCAK256 PUSH2 0x90E DUP4 MLOAD DUP3 PUSH2 0xE00 JUMP JUMPDEST PUSH2 0x91F PUSH1 0x20 DUP5 ADD MLOAD PUSH1 0x1 DUP4 ADD PUSH2 0xE00 JUMP JUMPDEST PUSH2 0x930 PUSH1 0x40 DUP5 ADD MLOAD PUSH1 0x2 DUP4 ADD PUSH2 0xE00 JUMP JUMPDEST PUSH2 0x941 PUSH1 0x60 DUP5 ADD MLOAD PUSH1 0x3 DUP4 ADD PUSH2 0xE00 JUMP JUMPDEST PUSH2 0x952 PUSH1 0x80 DUP5 ADD MLOAD PUSH1 0x4 DUP4 ADD PUSH2 0xE00 JUMP JUMPDEST PUSH2 0x963 PUSH1 0xA0 DUP5 ADD MLOAD PUSH1 0x5 DUP4 ADD PUSH2 0xE00 JUMP JUMPDEST PUSH2 0x974 PUSH1 0xC0 DUP5 ADD MLOAD PUSH1 0x6 DUP4 ADD PUSH2 0xE00 JUMP JUMPDEST PUSH2 0x985 PUSH1 0xE0 DUP5 ADD MLOAD PUSH1 0x7 DUP4 ADD PUSH2 0xE00 JUMP JUMPDEST PUSH2 0x997 PUSH2 0x100 DUP5 ADD MLOAD PUSH1 0x8 DUP4 ADD PUSH2 0xE00 JUMP JUMPDEST PUSH2 0x9A9 PUSH2 0x120 DUP5 ADD MLOAD PUSH1 0x9 DUP4 ADD PUSH2 0xE00 JUMP JUMPDEST PUSH2 0x9BB PUSH2 0x140 DUP5 ADD MLOAD PUSH1 0xA DUP4 ADD PUSH2 0xE00 JUMP JUMPDEST PUSH2 0x9CD PUSH2 0x160 DUP5 ADD MLOAD PUSH1 0xB DUP4 ADD PUSH2 0xE00 JUMP JUMPDEST PUSH2 0x9DF PUSH2 0x180 DUP5 ADD MLOAD PUSH1 0xC DUP4 ADD PUSH2 0xE00 JUMP JUMPDEST PUSH2 0x1A0 DUP4 ADD MLOAD PUSH1 0xD DUP3 ADD SSTORE PUSH2 0x9FC PUSH2 0x1C0 DUP5 ADD MLOAD PUSH1 0xE DUP4 ADD PUSH2 0xE00 JUMP JUMPDEST ADD SWAP1 PUSH2 0x1E0 DUP2 ADD MLOAD ISZERO ISZERO SWAP1 DUP3 SLOAD PUSH2 0xFF00 PUSH2 0x200 DUP4 ADD MLOAD ISZERO ISZERO PUSH1 0x8 SHL AND SWAP1 PUSH1 0xFF PUSH4 0xFF000000 PUSH2 0x240 PUSH3 0xFF0000 PUSH2 0x220 DUP8 ADD MLOAD ISZERO ISZERO PUSH1 0x10 SHL AND SWAP6 ADD MLOAD ISZERO ISZERO PUSH1 0x18 SHL AND SWAP5 AND SWAP1 PUSH4 0xFFFFFFFF NOT AND OR OR OR OR SWAP1 SSTORE PUSH1 0x40 MLOAD PUSH1 0x20 DUP2 DUP5 MLOAD PUSH2 0xA61 DUP2 DUP4 DUP6 DUP10 ADD PUSH2 0xD7E JUMP JUMPDEST DUP2 ADD PUSH1 0x2 DUP2 MSTORE SUB ADD SWAP1 KECCAK256 DUP1 SLOAD SWAP2 PUSH9 0x10000000000000000 DUP4 LT ISZERO PUSH2 0xAF0 JUMPI PUSH1 0x1 DUP4 ADD DUP1 DUP4 SSTORE DUP4 LT ISZERO PUSH2 0xADA JUMPI PUSH2 0xAA7 DUP2 PUSH2 0xAB2 SWAP5 PUSH2 0xAAC SWAP5 PUSH1 0x0 MSTORE PUSH1 0x20 PUSH1 0x0 KECCAK256 ADD PUSH2 0xE00 JUMP JUMPDEST PUSH2 0xF10 JUMP JUMPDEST SWAP2 PUSH2 0xF10 JUMP JUMPDEST SWAP1 PUSH32 0x5C683C8EF124ED98B107DCF80C644ABC011626816B5B3A73E3F6D518C0CD778 PUSH1 0x0 DUP1 LOG3 STOP JUMPDEST PUSH4 0x4E487B71 PUSH1 0xE0 SHL PUSH1 0x0 MSTORE PUSH1 0x32 PUSH1 0x4 MSTORE PUSH1 0x24 PUSH1 0x0 REVERT JUMPDEST PUSH4 0x4E487B71 PUSH1 0xE0 SHL PUSH1 0x0 MSTORE PUSH1 0x41 PUSH1 0x4 MSTORE PUSH1 0x24 PUSH1 0x0 REVERT JUMPDEST PUSH1 0x40 MLOAD PUSH3 0x461BCD PUSH1 0xE5 SHL DUP2 MSTORE PUSH1 0x20 PUSH1 0x4 DUP3 ADD MSTORE PUSH1 0xE PUSH1 0x24 DUP3 ADD MSTORE PUSH14 0x416C726561647920657869737473 PUSH1 0x90 SHL PUSH1 0x44 DUP3 ADD MSTORE PUSH1 0x64 SWAP1 REVERT JUMPDEST CALLVALUE PUSH2 0x136 JUMPI PUSH1 0x20 DUP1 PUSH1 0x3 NOT CALLDATASIZE ADD SLT PUSH2 0x136 JUMPI PUSH8 0xFFFFFFFFFFFFFFFF PUSH1 0x4 CALLDATALOAD DUP2 DUP2 GT PUSH2 0x136 JUMPI DUP3 PUSH2 0xB73 PUSH2 0xB86 SWAP3 CALLDATASIZE SWAP1 PUSH1 0x4 ADD PUSH2 0xD27 JUMP JUMPDEST DUP2 PUSH1 0x40 MLOAD SWAP4 DUP3 DUP6 DUP1 SWAP5 MLOAD SWAP4 DUP5 SWAP3 ADD PUSH2 0xD7E JUMP JUMPDEST DUP2 ADD PUSH1 0x2 DUP2 MSTORE SUB ADD SWAP1 KECCAK256 DUP1 SLOAD SWAP2 DUP3 GT PUSH2 0xAF0 JUMPI DUP3 SWAP1 PUSH1 0x40 MLOAD SWAP3 PUSH2 0xBAE DUP4 DUP3 PUSH1 0x5 SHL ADD DUP6 PUSH2 0xD05 JUMP JUMPDEST DUP1 DUP5 MSTORE DUP3 DUP5 ADD DUP1 SWAP3 PUSH1 0x0 MSTORE DUP4 PUSH1 0x0 KECCAK256 PUSH1 0x0 SWAP2 JUMPDEST DUP4 DUP4 LT PUSH2 0xC28 JUMPI POP POP POP POP PUSH1 0x40 MLOAD SWAP2 DUP1 DUP4 ADD SWAP4 DUP2 DUP5 MSTORE MLOAD DUP1 SWAP5 MSTORE PUSH1 0x40 DUP4 ADD SWAP4 PUSH1 0x40 DUP2 PUSH1 0x5 SHL DUP6 ADD ADD SWAP3 SWAP2 PUSH1 0x0 SWAP6 JUMPDEST DUP3 DUP8 LT PUSH2 0xBFC JUMPI DUP6 DUP6 SUB DUP7 RETURN JUMPDEST SWAP1 SWAP2 SWAP3 SWAP4 DUP3 DUP1 PUSH2 0xC18 PUSH1 0x1 SWAP4 PUSH1 0x3F NOT DUP11 DUP3 SUB ADD DUP7 MSTORE DUP9 MLOAD PUSH2 0xDA1 JUMP JUMPDEST SWAP7 ADD SWAP3 ADD SWAP7 ADD SWAP6 SWAP3 SWAP2 SWAP1 SWAP3 PUSH2 0xBEF JUMP JUMPDEST PUSH1 0x1 DUP7 DUP2 SWAP3 PUSH2 0xC39 DUP6 SWAP11 SWAP10 SWAP11 PUSH2 0xF6D JUMP JUMPDEST DUP2 MSTORE ADD SWAP3 ADD SWAP3 ADD SWAP2 SWAP1 SWAP6 SWAP5 SWAP6 PUSH2 0xBC1 JUMP JUMPDEST CALLVALUE PUSH2 0x136 JUMPI PUSH1 0x20 CALLDATASIZE PUSH1 0x3 NOT ADD SLT PUSH2 0x136 JUMPI PUSH1 0x4 CALLDATALOAD PUSH8 0xFFFFFFFFFFFFFFFF DUP2 GT PUSH2 0x136 JUMPI PUSH2 0xC7E PUSH2 0xCC1 SWAP2 CALLDATASIZE SWAP1 PUSH1 0x4 ADD PUSH2 0xD27 JUMP JUMPDEST PUSH1 0xF PUSH2 0xCA2 PUSH1 0x20 PUSH1 0x40 MLOAD PUSH2 0xE3 PUSH2 0xDC DUP7 MLOAD SWAP3 DUP5 DUP2 DUP2 DUP11 ADD SWAP6 PUSH2 0xCC DUP2 DUP4 DUP10 PUSH2 0xD7E JUMP JUMPDEST DUP2 ADD PUSH1 0x1 DUP2 MSTORE SUB ADD SWAP1 KECCAK256 ADD PUSH3 0x10000 PUSH3 0xFF0000 NOT DUP3 SLOAD AND OR SWAP1 SSTORE PUSH2 0xF10 JUMP JUMPDEST PUSH32 0x4E4003378FE790A19A351B9848E06179B5D6E7A3262A28CFC05F8BACBA35857A PUSH1 0x0 DUP1 LOG2 STOP JUMPDEST PUSH2 0x260 DUP2 ADD SWAP1 DUP2 LT PUSH8 0xFFFFFFFFFFFFFFFF DUP3 GT OR PUSH2 0xAF0 JUMPI PUSH1 0x40 MSTORE JUMP JUMPDEST SWAP1 PUSH1 0x1F DUP1 NOT SWAP2 ADD AND DUP2 ADD SWAP1 DUP2 LT PUSH8 0xFFFFFFFFFFFFFFFF DUP3 GT OR PUSH2 0xAF0 JUMPI PUSH1 0x40 MSTORE JUMP JUMPDEST DUP2 PUSH1 0x1F DUP3 ADD SLT ISZERO PUSH2 0x136 JUMPI DUP1 CALLDATALOAD SWAP1 PUSH8 0xFFFFFFFFFFFFFFFF DUP3 GT PUSH2 0xAF0 JUMPI PUSH1 0x40 MLOAD SWAP3 PUSH2 0xD5C PUSH1 0x1F DUP5 ADD PUSH1 0x1F NOT AND PUSH1 0x20 ADD DUP6 PUSH2 0xD05 JUMP JUMPDEST DUP3 DUP5 MSTORE PUSH1 0x20 DUP4 DUP4 ADD ADD GT PUSH2 0x136 JUMPI DUP2 PUSH1 0x0 SWAP3 PUSH1 0x20 DUP1 SWAP4 ADD DUP4 DUP7 ADD CALLDATACOPY DUP4 ADD ADD MSTORE SWAP1 JUMP JUMPDEST PUSH1 0x0 JUMPDEST DUP4 DUP2 LT PUSH2 0xD91 JUMPI POP POP PUSH1 0x0 SWAP2 ADD MSTORE JUMP JUMPDEST DUP2 DUP2 ADD MLOAD DUP4 DUP3 ADD MSTORE PUSH1 0x20 ADD PUSH2 0xD81 JUMP JUMPDEST SWAP1 PUSH1 0x20 SWAP2 PUSH2 0xDBA DUP2 MLOAD DUP1 SWAP3 DUP2 DUP6 MSTORE DUP6 DUP1 DUP7 ADD SWAP2 ADD PUSH2 0xD7E JUMP JUMPDEST PUSH1 0x1F ADD PUSH1 0x1F NOT AND ADD ADD SWAP1 JUMP JUMPDEST SWAP1 PUSH1 0x1 DUP3 DUP2 SHR SWAP3 AND DUP1 ISZERO PUSH2 0xDF6 JUMPI JUMPDEST PUSH1 0x20 DUP4 LT EQ PUSH2 0xDE0 JUMPI JUMP JUMPDEST PUSH4 0x4E487B71 PUSH1 0xE0 SHL PUSH1 0x0 MSTORE PUSH1 0x22 PUSH1 0x4 MSTORE PUSH1 0x24 PUSH1 0x0 REVERT JUMPDEST SWAP2 PUSH1 0x7F AND SWAP2 PUSH2 0xDD5 JUMP JUMPDEST SWAP2 SWAP1 SWAP2 DUP3 MLOAD PUSH8 0xFFFFFFFFFFFFFFFF DUP2 GT PUSH2 0xAF0 JUMPI PUSH2 0xE1E DUP3 SLOAD PUSH2 0xDC6 JUMP JUMPDEST PUSH1 0x1F DUP2 GT PUSH2 0xEC8 JUMPI JUMPDEST POP PUSH1 0x20 DUP1 PUSH1 0x1F DUP4 GT PUSH1 0x1 EQ PUSH2 0xE64 JUMPI POP DUP2 SWAP3 SWAP4 SWAP5 PUSH1 0x0 SWAP3 PUSH2 0xE59 JUMPI JUMPDEST POP POP DUP2 PUSH1 0x1 SHL SWAP2 PUSH1 0x0 NOT SWAP1 PUSH1 0x3 SHL SHR NOT AND OR SWAP1 SSTORE JUMP JUMPDEST ADD MLOAD SWAP1 POP CODESIZE DUP1 PUSH2 0xE43 JUMP JUMPDEST SWAP1 PUSH1 0x1F NOT DUP4 AND SWAP6 DUP5 PUSH1 0x0 MSTORE DUP3 PUSH1 0x0 KECCAK256 SWAP3 PUSH1 0x0 SWAP1 JUMPDEST DUP9 DUP3 LT PUSH2 0xEB0 JUMPI POP POP DUP4 PUSH1 0x1 SWAP6 SWAP7 SWAP8 LT PUSH2 0xE97 JUMPI JUMPDEST POP POP POP DUP2 SHL ADD SWAP1 SSTORE JUMP JUMPDEST ADD MLOAD PUSH1 0x0 NOT PUSH1 0xF8 DUP5 PUSH1 0x3 SHL AND SHR NOT AND SWAP1 SSTORE CODESIZE DUP1 DUP1 PUSH2 0xE8D JUMP JUMPDEST DUP1 PUSH1 0x1 DUP6 SWAP7 DUP3 SWAP5 SWAP7 DUP7 ADD MLOAD DUP2 SSTORE ADD SWAP6 ADD SWAP4 ADD SWAP1 PUSH2 0xE78 JUMP JUMPDEST PUSH1 0x0 DUP4 DUP2 MSTORE PUSH1 0x20 DUP2 KECCAK256 PUSH1 0x1F DUP5 ADD PUSH1 0x5 SHR DUP2 ADD SWAP3 PUSH1 0x20 DUP6 LT PUSH2 0xF06 JUMPI JUMPDEST PUSH1 0x1F ADD PUSH1 0x5 SHR ADD SWAP2 JUMPDEST DUP3 DUP2 LT PUSH2 0xEFB JUMPI POP POP PUSH2 0xE27 JUMP JUMPDEST DUP2 DUP2 SSTORE PUSH1 0x1 ADD PUSH2 0xEED JUMP JUMPDEST SWAP1 SWAP3 POP DUP3 SWAP1 PUSH2 0xEE4 JUMP JUMPDEST PUSH2 0xF28 SWAP1 PUSH1 0x20 PUSH1 0x40 MLOAD SWAP3 DUP3 DUP5 DUP1 SWAP5 MLOAD SWAP4 DUP5 SWAP3 ADD PUSH2 0xD7E JUMP JUMPDEST DUP2 ADD SUB SWAP1 KECCAK256 SWAP1 JUMP JUMPDEST ISZERO PUSH2 0xF37 JUMPI JUMP JUMPDEST PUSH1 0x40 MLOAD PUSH3 0x461BCD PUSH1 0xE5 SHL DUP2 MSTORE PUSH1 0x20 PUSH1 0x4 DUP3 ADD MSTORE PUSH1 0xE PUSH1 0x24 DUP3 ADD MSTORE PUSH14 0x139BDD081C9959DA5CDD195C9959 PUSH1 0x92 SHL PUSH1 0x44 DUP3 ADD MSTORE PUSH1 0x64 SWAP1 REVERT JUMPDEST SWAP1 PUSH1 0x40 MLOAD SWAP2 DUP3 PUSH1 0x0 DUP3 SLOAD SWAP3 PUSH2 0xF81 DUP5 PUSH2 0xDC6 JUMP JUMPDEST SWAP1 DUP2 DUP5 MSTORE PUSH1 0x1 SWAP5 DUP6 DUP2 AND SWAP1 DUP2 PUSH1 0x0 EQ PUSH2 0xFF0 JUMPI POP PUSH1 0x1 EQ PUSH2 0xFAD JUMPI JUMPDEST POP POP PUSH2 0xFAB SWAP3 POP SUB DUP4 PUSH2 0xD05 JUMP JUMPDEST JUMP JUMPDEST SWAP1 SWAP4 SWAP2 POP PUSH1 0x0 MSTORE PUSH1 0x20 SWAP1 DUP2 PUSH1 0x0 KECCAK256 SWAP4 PUSH1 0x0 SWAP2 JUMPDEST DUP2 DUP4 LT PUSH2 0xFD8 JUMPI POP POP PUSH2 0xFAB SWAP4 POP DUP3 ADD ADD CODESIZE DUP1 PUSH2 0xF9D JUMP JUMPDEST DUP6 SLOAD DUP9 DUP5 ADD DUP6 ADD MSTORE SWAP5 DUP6 ADD SWAP5 DUP8 SWAP5 POP SWAP2 DUP4 ADD SWAP2 PUSH2 0xFC0 JUMP JUMPDEST SWAP2 POP POP PUSH2 0xFAB SWAP5 POP PUSH1 0x20 SWAP3 POP PUSH1 0xFF NOT AND DUP3 DUP5 ADD MSTORE ISZERO ISZERO PUSH1 0x5 SHL DUP3 ADD ADD CODESIZE DUP1 PUSH2 0xF9D JUMP INVALID LOG2 PUSH5 0x6970667358 0x22 SLT KECCAK256 0xB4 0xDF MSTORE8 0xDE 0x1E 0xE7 RETURNDATASIZE COINBASE CODESIZE LOG1 0xD8 GAS 0xBE 0x25 0xC2 0xE8 0xA5 MSIZE 0xCF BASEFEE MSIZE 0xAB 0x2F 0xE SUB SWAP4 0xA6 0xB6 GT EXTCODECOPY 0xC2 0xE3 PUSH5 0x736F6C6343 STOP ADDMOD EQ STOP CALLER "},"methodIdentifiers":{"getProduct(string)":"68111cce","getProductsByBox(string)":"289496bb","owner()":"8da5cb5b","registerProduct(string,string,string,string,string,string,string,string,string,string,string,string,string,uint256,string)":"4e260d3c","saleComplete(string)":"1768850f","shipProduct(string)":"f6e2b1ad","verifyBySystem(string)":"d15bd3cb","verifyRetailer(string)":"ef7ac6ba"}}}}}