{
  "_format": "hh-sol-artifact-1",
  "contractName": "TrustChain",
  "sourceName": "contracts/TrustChain.sol",
  "abi": [
    {
      "inputs": [],
      "stateMutability": "nonpayable",
      "type": "constructor"
    },
    {
      "anonymous": false,
      "inputs": [
        {
          "indexed": true,
          "internalType": "string",
          "name": "batchNumber",
          "type": "string"
        },
        {
          "indexed": true,
          "internalType": "string",
          "name": "boxId",
          "type": "string"
        },
        {
          "indexed": false,
          "internalType": "uint256",
          "name": "productCount",
          "type": "uint256"
        }
      ],
      "name": "BatchRegistered",
      "type": "event"
    },
    {
      "anonymous": false,
      "inputs": [
        {
          "indexed": true,
          "internalType": "string",
          "name": "productId",
          "type": "string"
        },
        {
          "indexed": true,
          "internalType": "string",
          "name": "boxId",
          "type": "string"
        }
      ],
      "name": "ProductRegistered",
      "type": "event"
    },
    {
      "anonymous": false,
      "inputs": [
        {
          "indexed": true,
          "internalType": "string",
          "name": "productId",
          "type": "string"
        }
      ],
      "name": "ProductShipped",
      "type": "event"
    },
    {
      "anonymous": false,
      "inputs": [
        {
          "indexed": true,
          "internalType": "string",
          "name": "productId",
          "type": "string"
        }
      ],
      "name": "ProductSold",
      "type": "event"
    },
    {
      "anonymous": false,
      "inputs": [
        {
          "indexed": true,
          "internalType": "string",
          "name": "productId",
          "type": "string"
        }
      ],
      "name": "ProductSystemVerified",
      "type": "event"
    },
    {
      "anonymous": false,
      "inputs": [
        {
          "indexed": true,
          "internalType": "string",
          "name": "productId",
          "type": "string"
        }
      ],
      "name": "ProductVerified",
      "type": "event"
    },
    {
      "inputs": [
        {
          "internalType": "string",
          "name": "productId",
          "type": "string"
        }
      ],
      "name": "getProduct",
      "outputs": [
        {
          "components": [
            {
              "internalType": "string",
              "name": "productId",
              "type": "string"
            },
            {
              "internalType": "string",
              "name": "boxId",
              "type": "string"
            },
            {
              "internalType": "string",
              "name": "name",
              "type": "string"
            },
            {
              "internalType": "string",
              "name": "category",
              "type": "string"
            },
            {
              "internalType": "string",
              "name": "manufacturer",
              "type": "string"
            },
            {
              "internalType": "string",
              "name": "manufacturerDate",
              "type": "string"
            },
            {
              "internalType": "string",
              "name": "manufacturePlace",
              "type": "string"
            },
            {
              "internalType": "string",
              "name": "modelNumber",
              "type": "string"
            },
            {
              "internalType": "string",
              "name": "serialNumber",
              "type": "string"
            },
            {
              "internalType": "string",
              "name": "warrantyPeriod",
              "type": "string"
            },
            {
              "internalType": "string",
              "name": "batchNumber",
              "type": "string"
            },
            {
              "internalType": "string",
              "name": "color",
              "type": "string"
            },
            {
              "internalType": "string",
              "name": "specs",
              "type": "string"
            },
            {
              "internalType": "uint256",
              "name": "price",
              "type": "uint256"
            },
            {
              "internalType": "string",
              "name": "image",
              "type": "string"
            },
            {
              "internalType": "bool",
              "name": "shipped",
              "type": "bool"
            },
            {
              "internalType": "bool",
              "name": "verifiedByRetailer",
              "type": "bool"
            },
            {
              "internalType": "bool",
              "name": "sold",
              "type": "bool"
            },
            {
              "internalType": "bool",
              "name": "verifiedBySystem",
              "type": "bool"
            }
          ],
          "internalType": "struct TrustChain.Product",
          "name": "",
          "type": "tuple"
        }
      ],
      "stateMutability": "view",
      "type": "function"
    },
    {
      "inputs": [
        {
          "internalType": "string",
          "name": "boxId",
          "type": "string"
        }
      ],
      "name": "getProductsByBox",
      "outputs": [
        {
          "internalType": "string[]",
          "name": "",
          "type": "string[]"
        }
      ],
      "stateMutability": "view",
      "type": "function"
    },
    {
      "inputs": [],
      "name": "owner",
      "outputs": [
        {
          "internalType": "address",
          "name": "",
          "type": "address"
        }
      ],
      "stateMutability": "view",
      "type": "function"
    },
    {
      "inputs": [
        {
          "internalType": "string",
          "name": "batchNumber",
          "type": "string"
        },
        {
          "internalType": "string",
          "name": "boxId",
          "type": "string"
        },
        {
          "components": [
            {
              "internalType": "string",
              "name": "productId",
              "type": "string"
            },
            {
              "internalType": "string",
              "name": "boxId",
              "type": "string"
            },
            {
              "internalType": "string",
              "name": "name",
              "type": "string"
            },
            {
              "internalType": "string",
              "name": "category",
              "type": "string"
            },
            {
              "internalType": "string",
              "name": "manufacturer",
              "type": "string"
            },
            {
              "internalType": "string",
              "name": "manufacturerDate",
              "type": "string"
            },
            {
              "internalType": "string",
              "name": "manufacturePlace",
              "type": "string"
            },
            {
              "internalType": "string",
              "name": "modelNumber",
              "type": "string"
            },
            {
              "internalType": "string",
              "name": "serialNumber",
              "type": "string"
            },
            {
              "internalType": "string",
              "name": "warrantyPeriod",
              "type": "string"
            },
            {
              "internalType": "string",
              "name": "batchNumber",
              "type": "string"
            },
            {
              "internalType": "string",
              "name": "color",
              "type": "string"
            },
            {
              "internalType": "string",
              "name": "specs",
              "type": "string"
            },
            {
              "internalType": "uint256",
              "name": "price",
              "type": "uint256"
            },
            {
              "internalType": "string",
              "name": "image",
              "type": "string"
            }
          ],
          "internalType": "struct TrustChain.ProductInput[]",
          "name": "items",
          "type": "tuple[]"
        }
      ],
      "name": "registerBatchProducts",
      "outputs": [],
      "stateMutability": "nonpayable",
      "type": "function"
    },
    {
      "inputs": [
        {
          "internalType": "string",
          "name": "productId",
          "type": "string"
        }
      ],
      "name": "saleComplete",
      "outputs": [],
      "stateMutability": "nonpayable",
      "type": "function"
    },
    {
      "inputs": [
        {
          "internalType": "string",
          "name": "_boxId",
          "type": "string"
        }
      ],
      "name": "shipBox",
      "outputs": [],
      "stateMutability": "nonpayable",
      "type": "function"
    },
    {
      "inputs": [
        {
          "internalType": "string",
          "name": "productId",
          "type": "string"
        }
      ],
      "name": "verifyBySystem",
      "outputs": [],
      "stateMutability": "nonpayable",
      "type": "function"
    },
    {
      "inputs": [
        {
          "internalType": "string",
          "name": "productId",
          "type": "string"
        }
      ],
      "name": "verifyRetailer",
      "outputs": [],
      "stateMutability": "nonpayable",
      "type": "function"
    }
  ],
  "bytecode": "0x6080806040523461002857600080546001600160a01b03191633179055611f53908161002e8239f35b600080fdfe610260604052600436101561001357600080fd5b60003560e01c80631768850f14611b75578063289496bb14611a7b57806368111cce1461169d57806385abadc2146103d95780638da5cb5b146103b0578063cfc9a8c914610221578063d15bd3cb1461013d5763ef7ac6ba1461007557600080fd5b34610138576020366003190112610138576004356001600160401b038111610138576100a8610111913690600401611c95565b600f6100f460206040516100e36100dc8651928481818a01956100cc818389611cb3565b8101600181520301902054611d52565b1515611ee0565b604051809381928751928391611cb3565b810160018152030190200161010061ff0019825416179055611e06565b7f9bb3d92ff53ce504ee358d5ff79f13221b4836773184e8ec3e9e299f7d032aee600080a2005b600080fd5b34610138576020366003190112610138576004356001600160401b0381116101385761016d903690600401611c95565b6000546001600160a01b031633036101ef576101c890600f6101a760206040516100e36100dc8651928481818a01956100cc818389611cb3565b8101600181520301902001630100000063ff00000019825416179055611e06565b7f7d8a41247edd77a402ab86adc7161f72221dda94f4f8e55c05267db2f3723932600080a2005b60405162461bcd60e51b815260206004820152600a60248201526927b7363c9037bbb732b960b11b6044820152606490fd5b3461013857602080600319360112610138576001600160401b0390600435828111610138578161025861026b923690600401611c95565b8160405193828580945193849201611cb3565b8101600281520301902091825490811161039a5760405192610292838360051b0185611c2e565b8184526000908152828120838086015b84841061037c578682815115610348575060005b8151811015610346576102ea90600f60ff816102db6102d58588611ecc565b51611de0565b015416156102ef575b50611cfb565b6102b6565b6102fc6102d58386611ecc565b01805460ff1916600117905561031b6103158285611ecc565b51611e06565b7f9dbe2d347001eec4f99473edc6161746246c3bd920ebc7aec9ea509774a6a87c600080a2836102e4565b005b6064906040519062461bcd60e51b82526004820152600d60248201526c109bde081b9bdd08199bdd5b99609a1b6044820152fd5b600191829161038a85611e26565b81520192019201919084906102a2565b634e487b7160e01b600052604160045260246000fd5b34610138576000366003190112610138576000546040516001600160a01b039091168152602090f35b34610138576060366003190112610138576004356001600160401b03811161013857610409903690600401611c95565b6024356001600160401b03811161013857610428903690600401611c95565b610220526001600160401b036044351161013857366023604435011215610138576001600160401b036044356004013511610138573660246044356004013560051b60443501011161013857604435600401351561166a576000905b6044356004013582106104d95761049a90611e06565b6104a661022051611e06565b907f18db121024f7d458bf791e0bd10ef3c4172203c9f0a9179a3700330d364cb62c6020604051604435600401358152a3005b60248260051b604435010135806101205261020219604435360301811215610138576020610511602461052c93604435010180611d20565b91908260405193849283378101600181520301902054611d52565b61162c5761012051604435016105456024820180611d20565b906101405260648201602483019061055c91611d20565b61024052610180526105746084830160248401611d20565b9061058560a4850160248601611d20565b9061059660c4870160248801611d20565b90916105a860e4890160248a01611d20565b9490956101048a0160248b01906105be91611d20565b9890996101248c0160248d01906105d491611d20565b9c906101a052610144810160248201906105ed91611d20565b60c05260e052610604610184820160248301611d20565b6101e0526102005261061d6101a4820160248301611d20565b6080526101c052610636906101e4810190602401611d20565b6101005260a052604051806101605261064e90611c12565b36610140519161065d92611c4f565b6101605152610220516101605160200152366102405190610180519161068292611c4f565b6101605160400152369061069592611c4f565b610160516060015236906106a892611c4f565b610160516080015236906106bb92611c4f565b6101605160a0015236906106ce92611c4f565b6101605160c0015236906106e192611c4f565b6101605160e00152366101a051916106f892611c4f565b61016051610100015260c05160e051610712913691611c4f565b61016051610120015280610160516101400152366101e05190610200519161073992611c4f565b610160805101526080516101c051610752913691611c4f565b61016051610180015261012051604435016101c40135610160516101a0015236610100519060a0519161078492611c4f565b610160516101c00152610160516101e001600090526101605161020001600090526101605161022001600090526101605161024001600090526101205160443501602401806107d291611d20565b908160405192839283378101600181520360200190209161016051518051906001600160401b03821161039a5781906108158261080f8854611d52565b88611d8c565b602090601f83116001146115c0576000926115b5575b50508160011b916000199060031b1c19161783555b60206101605101518051906001600160401b03821161039a5781906108758261086c6001890154611d52565b60018901611d8c565b602090601f831160011461154357600092611538575b50508160011b916000199060031b1c19161760018401555b60406101605101518051906001600160401b03821161039a5781906108d8826108cf6002890154611d52565b60028901611d8c565b602090601f83116001146114c6576000926114bb575b50508160011b916000199060031b1c19161760028401555b60606101605101518051906001600160401b03821161039a57819061093b826109326003890154611d52565b60038901611d8c565b602090601f83116001146114495760009261143e575b50508160011b916000199060031b1c19161760038401555b60806101605101518051906001600160401b03821161039a57819061099e826109956004890154611d52565b60048901611d8c565b602090601f83116001146113cc576000926113c1575b50508160011b916000199060031b1c19161760048401555b60a06101605101518051906001600160401b03821161039a578190610a01826109f86005890154611d52565b60058901611d8c565b602090601f831160011461134f57600092611344575b50508160011b916000199060031b1c19161760058401555b60c06101605101518051906001600160401b03821161039a578190610a6482610a5b6006890154611d52565b60068901611d8c565b602090601f83116001146112d2576000926112c7575b50508160011b916000199060031b1c19161760068401555b60e06101605101518051906001600160401b03821161039a578190610ac782610abe6007890154611d52565b60078901611d8c565b602090601f83116001146112555760009261124a575b50508160011b916000199060031b1c19161760078401555b6101006101605101518051906001600160401b03821161039a578190610b2b82610b226008890154611d52565b60088901611d8c565b602090601f83116001146111d8576000926111cd575b50508160011b916000199060031b1c19161760088401555b6101206101605101518051906001600160401b03821161039a578190610b8f82610b866009890154611d52565b60098901611d8c565b602090601f831160011461115b57600092611150575b50508160011b916000199060031b1c19161760098401555b6101406101605101518051906001600160401b03821161039a578190610bf382610bea600a890154611d52565b600a8901611d8c565b602090601f83116001146110de576000926110d3575b50508160011b916000199060031b1c191617600a8401555b610160805101519283516001600160401b03811161039a57610c5381610c4a600b850154611d52565b600b8501611d8c565b6020601f8211600114611064578192939495600092611059575b50508160011b916000199060031b1c191617600b8201555b6101806101605101518051906001600160401b03821161039a578190610cbb82610cb2600c870154611d52565b600c8701611d8c565b602090601f8311600114610fe757600092610fdc575b50508160011b916000199060031b1c191617600c8201555b6101c0610160516101a0810151600d84015501518051906001600160401b03821161039a57610d2882610d1f600e860154611d52565b600e8601611d8c565b602090601f8311600114610f6957600f93929160009183610f5e575b50508160011b916000199060031b1c191617600e8201555b01610160516101e0810151151590825461ff00610200830151151560081b169060ff63ff00000061024062ff0000610220870151151560101b16950151151560181b1694169063ffffffff191617171717905560405160208181610dc96102205183815193849201611cb3565b81016002815203019020610de7602461012051604435010180611d20565b90918054906801000000000000000082101561039a5760018201808255821015610f4857600052602060002001916001600160401b03821161039a57610e3782610e318554611d52565b85611d8c565b600090601f8311600114610ed957610ec89493929160009183610ece575b50508160011b916000199060031b1c19161790555b610e7e602461012051604435010180611d20565b90816040519283928337810160008152039020610e9d61022051611e06565b907f05c683c8ef124ed98b107dcf80c644abc011626816b5b3a73e3f6d518c0cd778600080a3611cfb565b90610484565b013590508680610e55565b8360005260206000209160005b601f1985168110610f305750918391600193610ec8979695601f19811610610f16575b505050811b019055610e6a565b0135600019600384901b60f8161c19169055868080610f09565b90926020600181928686013581550194019101610ee6565b634e487b7160e01b600052603260045260246000fd5b015190508680610d44565b90600e840160005260206000209160005b601f1985168110610fc45750918391600193600f9695601f19811610610fab575b505050811b01600e820155610d5c565b015160001960f88460031b161c19169055868080610f9b565b91926020600181928685015181550194019201610f7a565b015190508580610cd1565b9250600c84016000526020600020906000935b601f198416851061103e576001945083601f19811610611025575b505050811b01600c820155610ce9565b015160001960f88460031b161c19169055858080611015565b81810151835560209485019460019093019290910190610ffa565b015190508580610c6d565b600b830160005260206000209060005b601f19841681106110bb575060019394959683601f198116106110a2575b505050811b01600b820155610c85565b015160001960f88460031b161c19169055858080611092565b9091602060018192858b015181550193019101611074565b015190508580610c09565b9250600a86016000526020600020906000935b601f1984168510611135576001945083601f1981161061111c575b505050811b01600a840155610c21565b015160001960f88460031b161c1916905585808061110c565b818101518355602094850194600190930192909101906110f1565b015190508580610ba5565b9250600986016000526020600020906000935b601f19841685106111b2576001945083601f19811610611199575b505050811b016009840155610bbd565b015160001960f88460031b161c19169055858080611189565b8181015183556020948501946001909301929091019061116e565b015190508580610b41565b9250600886016000526020600020906000935b601f198416851061122f576001945083601f19811610611216575b505050811b016008840155610b59565b015160001960f88460031b161c19169055858080611206565b818101518355602094850194600190930192909101906111eb565b015190508580610add565b9250600786016000526020600020906000935b601f19841685106112ac576001945083601f19811610611293575b505050811b016007840155610af5565b015160001960f88460031b161c19169055858080611283565b81810151835560209485019460019093019290910190611268565b015190508580610a7a565b9250600686016000526020600020906000935b601f1984168510611329576001945083601f19811610611310575b505050811b016006840155610a92565b015160001960f88460031b161c19169055858080611300565b818101518355602094850194600190930192909101906112e5565b015190508580610a17565b9250600586016000526020600020906000935b601f19841685106113a6576001945083601f1981161061138d575b505050811b016005840155610a2f565b015160001960f88460031b161c1916905585808061137d565b81810151835560209485019460019093019290910190611362565b0151905085806109b4565b9250600486016000526020600020906000935b601f1984168510611423576001945083601f1981161061140a575b505050811b0160048401556109cc565b015160001960f88460031b161c191690558580806113fa565b818101518355602094850194600190930192909101906113df565b015190508580610951565b9250600386016000526020600020906000935b601f19841685106114a0576001945083601f19811610611487575b505050811b016003840155610969565b015160001960f88460031b161c19169055858080611477565b8181015183556020948501946001909301929091019061145c565b0151905085806108ee565b9250600286016000526020600020906000935b601f198416851061151d576001945083601f19811610611504575b505050811b016002840155610906565b015160001960f88460031b161c191690558580806114f4565b818101518355602094850194600190930192909101906114d9565b01519050858061088b565b9250600186016000526020600020906000935b601f198416851061159a576001945083601f19811610611581575b505050811b0160018401556108a3565b015160001960f88460031b161c19169055858080611571565b81810151835560209485019460019093019290910190611556565b01519050858061082b565b9250856000526020600020906000935b601f1984168510611611576001945083601f198116106115f8575b505050811b018355610840565b015160001960f88460031b161c191690558580806115eb565b818101518355602094850194600190930192909101906115d0565b60405162461bcd60e51b815260206004820152601660248201527550726f6475637420616c72656164792065786973747360501b6044820152606490fd5b60405162461bcd60e51b815260206004820152600b60248201526a08adae0e8f240c4c2e8c6d60ab1b6044820152606490fd5b34610138576020366003190112610138576004356001600160401b0381116101385760206116d2611777923690600401611c95565b60006102406040516116e381611c12565b606081526060858201526060604082015260608082015260606080820152606060a0820152606060c0820152606060e082015260606101008201526060610120820152606061014082015260606101608201526060610180820152826101a082015260606101c0820152826101e0820152826102008201528261022082015201528160405193828580945193849201611cb3565b8101600181520301902060ff600f6040519261179284611c12565b61179b81611e26565b84526117a960018201611e26565b60208501526117ba60028201611e26565b60408501526117cb60038201611e26565b60608501526117dc60048201611e26565b60808501526117ed60058201611e26565b60a08501526117fe60068201611e26565b60c085015261180f60078201611e26565b60e085015261182060088201611e26565b61010085015261183260098201611e26565b610120850152611844600a8201611e26565b610140850152611856600b8201611e26565b610160850152611868600c8201611e26565b610180850152600d8101546101a0850152611885600e8201611e26565b6101c0850152015481811615156101e0840152818160081c161515610200840152818160101c16151561022084015260181c161515610240820152604051809160208252610240611a44611a20611a086119f06119d86119c06119a861199161197b6119658b8d608061195061193b61192561190f86516102606020880152610280870190611cd6565b6020870151868203601f19016040880152611cd6565b6040860151858203601f19016060870152611cd6565b6060850151848203601f190184860152611cd6565b9201519060a0601f1982850301910152611cd6565b60a08c01518d8203601f190160c08f0152611cd6565b60c08b01518c8203601f190160e08e0152611cd6565b60e08a01518b8203601f19016101008d0152611cd6565b6101008901518a8203601f19016101208c0152611cd6565b610120880151898203601f19016101408b0152611cd6565b610140870151888203601f19016101608a0152611cd6565b610160860151878203601f1901610180890152611cd6565b610180850151868203601f19016101a0880152611cd6565b6101a08401516101c08601526101c0840151601f19868303016101e0870152611cd6565b916101e081015115156102008501526102008101511515610220850152610220810151151582850152015115156102608301520390f35b3461013857602080600319360112610138576001600160401b036004358181116101385782610258611ab1923690600401611c95565b81016002815203019020805491821161039a57829060405192611ad9838260051b0185611c2e565b8084528284018092600052836000206000915b838310611b535750505050604051918083019381845251809452604083019360408160051b85010192916000955b828710611b275785850386f35b909192938280611b43600193603f198a82030186528851611cd6565b9601920196019592919092611b1a565b6001868192611b64859a999a611e26565b815201920192019190959495611aec565b34610138576020366003190112610138576004356001600160401b03811161013857611ba8611beb913690600401611c95565b600f611bcc60206040516100e36100dc8651928481818a01956100cc818389611cb3565b81016001815203019020016201000062ff000019825416179055611e06565b7f4e4003378fe790a19a351b9848e06179b5d6e7a3262a28cfc05f8bacba35857a600080a2005b61026081019081106001600160401b0382111761039a57604052565b90601f801991011681019081106001600160401b0382111761039a57604052565b9291926001600160401b03821161039a5760405191611c78601f8201601f191660200184611c2e565b829481845281830111610138578281602093846000960137010152565b9080601f8301121561013857816020611cb093359101611c4f565b90565b60005b838110611cc65750506000910152565b8181015183820152602001611cb6565b90602091611cef81518092818552858086019101611cb3565b601f01601f1916010190565b6000198114611d0a5760010190565b634e487b7160e01b600052601160045260246000fd5b903590601e198136030182121561013857018035906001600160401b0382116101385760200191813603831361013857565b90600182811c92168015611d82575b6020831014611d6c57565b634e487b7160e01b600052602260045260246000fd5b91607f1691611d61565b90601f8111611d9a57505050565b600091825260208220906020601f850160051c83019410611dd6575b601f0160051c01915b828110611dcb57505050565b818155600101611dbf565b9092508290611db6565b6020611df9918160405193828580945193849201611cb3565b8101600181520301902090565b611e1e90602060405192828480945193849201611cb3565b810103902090565b9060405191826000825492611e3a84611d52565b908184526001948581169081600014611ea95750600114611e66575b5050611e6492500383611c2e565b565b9093915060005260209081600020936000915b818310611e91575050611e6493508201013880611e56565b85548884018501529485019487945091830191611e79565b915050611e6494506020925060ff191682840152151560051b8201013880611e56565b8051821015610f485760209160051b010190565b15611ee757565b60405162461bcd60e51b815260206004820152600e60248201526d139bdd081c9959da5cdd195c995960921b6044820152606490fdfea2646970667358221220a03532ecc836e6b238622f94142186de1fbb5142dee965cc7e8f6f240d18dbfb64736f6c63430008140033",
  "linkReferences": {},
  "deployedLinkReferences": {}
}