{
  "_format": "hh-sol-artifact-1",
  "contractName": "TrustChain",
  "sourceName": "contracts/TrustChain.sol",
  "abi": [
    {
      "inputs": [],
      "stateMutability": "nonpayable",
      "type": "constructor"
    },
    {
      "anonymous": false,
      "inputs": [
        {
          "indexed": true,
          "internalType": "string",
          "name": "productId",
          "type": "string"
        },
        {
          "indexed": true,
          "internalType": "string",
          "name": "boxId",
          "type": "string"
        }
      ],
      "name": "ProductRegistered",
      "type": "event"
    },
    {
      "anonymous": false,
      "inputs": [
        {
          "indexed": true,
          "internalType": "string",
          "name": "productId",
          "type": "string"
        }
      ],
      "name": "ProductShipped",
      "type": "event"
    },
    {
      "anonymous": false,
      "inputs": [
        {
          "indexed": true,
          "internalType": "string",
          "name": "productId",
          "type": "string"
        }
      ],
      "name": "ProductSold",
      "type": "event"
    },
    {
      "anonymous": false,
      "inputs": [
        {
          "indexed": true,
          "internalType": "string",
          "name": "productId",
          "type": "string"
        }
      ],
      "name": "ProductSystemVerified",
      "type": "event"
    },
    {
      "anonymous": false,
      "inputs": [
        {
          "indexed": true,
          "internalType": "string",
          "name": "productId",
          "type": "string"
        }
      ],
      "name": "ProductVerified",
      "type": "event"
    },
    {
      "inputs": [
        {
          "internalType": "string",
          "name": "_productId",
          "type": "string"
        }
      ],
      "name": "getProduct",
      "outputs": [
        {
          "components": [
            {
              "internalType": "string",
              "name": "productId",
              "type": "string"
            },
            {
              "internalType": "string",
              "name": "boxId",
              "type": "string"
            },
            {
              "internalType": "string",
              "name": "name",
              "type": "string"
            },
            {
              "internalType": "string",
              "name": "category",
              "type": "string"
            },
            {
              "internalType": "string",
              "name": "manufacturer",
              "type": "string"
            },
            {
              "internalType": "string",
              "name": "manufacturerDate",
              "type": "string"
            },
            {
              "internalType": "string",
              "name": "manufacturePlace",
              "type": "string"
            },
            {
              "internalType": "string",
              "name": "modelNumber",
              "type": "string"
            },
            {
              "internalType": "string",
              "name": "serialNumber",
              "type": "string"
            },
            {
              "internalType": "string",
              "name": "warrantyPeriod",
              "type": "string"
            },
            {
              "internalType": "string",
              "name": "batchNumber",
              "type": "string"
            },
            {
              "internalType": "string",
              "name": "color",
              "type": "string"
            },
            {
              "internalType": "string",
              "name": "specs",
              "type": "string"
            },
            {
              "internalType": "uint256",
              "name": "price",
              "type": "uint256"
            },
            {
              "internalType": "string",
              "name": "image",
              "type": "string"
            },
            {
              "internalType": "bool",
              "name": "shipped",
              "type": "bool"
            },
            {
              "internalType": "bool",
              "name": "verifiedByRetailer",
              "type": "bool"
            },
            {
              "internalType": "bool",
              "name": "sold",
              "type": "bool"
            },
            {
              "internalType": "bool",
              "name": "verifiedBySystem",
              "type": "bool"
            }
          ],
          "internalType": "struct TrustChain.Product",
          "name": "",
          "type": "tuple"
        }
      ],
      "stateMutability": "view",
      "type": "function"
    },
    {
      "inputs": [
        {
          "internalType": "string",
          "name": "_boxId",
          "type": "string"
        }
      ],
      "name": "getProductsByBox",
      "outputs": [
        {
          "internalType": "string[]",
          "name": "",
          "type": "string[]"
        }
      ],
      "stateMutability": "view",
      "type": "function"
    },
    {
      "inputs": [],
      "name": "owner",
      "outputs": [
        {
          "internalType": "address",
          "name": "",
          "type": "address"
        }
      ],
      "stateMutability": "view",
      "type": "function"
    },
    {
      "inputs": [
        {
          "internalType": "string",
          "name": "_productId",
          "type": "string"
        },
        {
          "internalType": "string",
          "name": "_boxId",
          "type": "string"
        },
        {
          "internalType": "string",
          "name": "_name",
          "type": "string"
        },
        {
          "internalType": "string",
          "name": "_category",
          "type": "string"
        },
        {
          "internalType": "string",
          "name": "_manufacturer",
          "type": "string"
        },
        {
          "internalType": "string",
          "name": "_manufacturerDate",
          "type": "string"
        },
        {
          "internalType": "string",
          "name": "_manufacturePlace",
          "type": "string"
        },
        {
          "internalType": "string",
          "name": "_modelNumber",
          "type": "string"
        },
        {
          "internalType": "string",
          "name": "_serialNumber",
          "type": "string"
        },
        {
          "internalType": "string",
          "name": "_warrantyPeriod",
          "type": "string"
        },
        {
          "internalType": "string",
          "name": "_batchNumber",
          "type": "string"
        },
        {
          "internalType": "string",
          "name": "_color",
          "type": "string"
        },
        {
          "internalType": "string",
          "name": "_specs",
          "type": "string"
        },
        {
          "internalType": "uint256",
          "name": "_price",
          "type": "uint256"
        },
        {
          "internalType": "string",
          "name": "_image",
          "type": "string"
        }
      ],
      "name": "registerProduct",
      "outputs": [],
      "stateMutability": "nonpayable",
      "type": "function"
    },
    {
      "inputs": [
        {
          "internalType": "string",
          "name": "_productId",
          "type": "string"
        }
      ],
      "name": "saleComplete",
      "outputs": [],
      "stateMutability": "nonpayable",
      "type": "function"
    },
    {
      "inputs": [
        {
          "internalType": "string",
          "name": "_productId",
          "type": "string"
        }
      ],
      "name": "shipProduct",
      "outputs": [],
      "stateMutability": "nonpayable",
      "type": "function"
    },
    {
      "inputs": [
        {
          "internalType": "string",
          "name": "_productId",
          "type": "string"
        }
      ],
      "name": "verifyBySystem",
      "outputs": [],
      "stateMutability": "nonpayable",
      "type": "function"
    },
    {
      "inputs": [
        {
          "internalType": "string",
          "name": "_productId",
          "type": "string"
        }
      ],
      "name": "verifyRetailer",
      "outputs": [],
      "stateMutability": "nonpayable",
      "type": "function"
    }
  ],
  "bytecode": "0x6080806040523461002857600080546001600160a01b03191633179055611049908161002e8239f35b600080fdfe6080604052600436101561001257600080fd5b60003560e01c80631768850f14610c4a578063289496bb14610b3c5780634e260d3c146106c457806368111cce146102e55780638da5cb5b146102bc578063d15bd3cb146101d7578063ef7ac6ba1461013b5763f6e2b1ad1461007457600080fd5b346101365760203660031901126101365760043567ffffffffffffffff8111610136576100a861010f913690600401610d27565b600f6100f460206040516100e36100dc8651928481818a01956100cc818389610d7e565b8101600181520301902054610dc6565b1515610f30565b604051809381928751928391610d7e565b8101600181520301902001600160ff19825416179055610f10565b7f9dbe2d347001eec4f99473edc6161746246c3bd920ebc7aec9ea509774a6a87c600080a2005b600080fd5b346101365760203660031901126101365760043567ffffffffffffffff81116101365761016f6101b0913690600401610d27565b600f61019360206040516100e36100dc8651928481818a01956100cc818389610d7e565b810160018152030190200161010061ff0019825416179055610f10565b7f9bb3d92ff53ce504ee358d5ff79f13221b4836773184e8ec3e9e299f7d032aee600080a2005b346101365760203660031901126101365760043567ffffffffffffffff811161013657610208903690600401610d27565b6000546001600160a01b0316330361028a5761026390600f61024260206040516100e36100dc8651928481818a01956100cc818389610d7e565b8101600181520301902001630100000063ff00000019825416179055610f10565b7f7d8a41247edd77a402ab86adc7161f72221dda94f4f8e55c05267db2f3723932600080a2005b60405162461bcd60e51b815260206004820152600a60248201526927b7363c9037bbb732b960b11b6044820152606490fd5b34610136576000366003190112610136576000546040516001600160a01b039091168152602090f35b346101365760203660031901126101365760043567ffffffffffffffff811161013657602061031b6103c0923690600401610d27565b600061024060405161032c81610ce8565b606081526060858201526060604082015260608082015260606080820152606060a0820152606060c0820152606060e082015260606101008201526060610120820152606061014082015260606101608201526060610180820152826101a082015260606101c0820152826101e0820152826102008201528261022082015201528160405193828580945193849201610d7e565b8101600181520301902060ff600f604051926103db84610ce8565b6103e481610f6d565b84526103f260018201610f6d565b602085015261040360028201610f6d565b604085015261041460038201610f6d565b606085015261042560048201610f6d565b608085015261043660058201610f6d565b60a085015261044760068201610f6d565b60c085015261045860078201610f6d565b60e085015261046960088201610f6d565b61010085015261047b60098201610f6d565b61012085015261048d600a8201610f6d565b61014085015261049f600b8201610f6d565b6101608501526104b1600c8201610f6d565b610180850152600d8101546101a08501526104ce600e8201610f6d565b6101c0850152015481811615156101e0840152818160081c161515610200840152818160101c16151561022084015260181c16151561024082015260405180916020825261024061068d6106696106516106396106216106096105f16105da6105c46105ae8b8d608061059961058461056e61055886516102606020880152610280870190610da1565b6020870151868203601f19016040880152610da1565b6040860151858203601f19016060870152610da1565b6060850151848203601f190184860152610da1565b9201519060a0601f1982850301910152610da1565b60a08c01518d8203601f190160c08f0152610da1565b60c08b01518c8203601f190160e08e0152610da1565b60e08a01518b8203601f19016101008d0152610da1565b6101008901518a8203601f19016101208c0152610da1565b610120880151898203601f19016101408b0152610da1565b610140870151888203601f19016101608a0152610da1565b610160860151878203601f1901610180890152610da1565b610180850151868203601f19016101a0880152610da1565b6101a08401516101c08601526101c0840151601f19868303016101e0870152610da1565b916101e081015115156102008501526102008101511515610220850152610220810151151582850152015115156102608301520390f35b34610136576101e03660031901126101365767ffffffffffffffff600435818111610136576106f7903690600401610d27565b6024358281116101365761070f903690600401610d27565b9160443581811161013657610728903690600401610d27565b9060643581811161013657610741903690600401610d27565b60843582811161013657610759903690600401610d27565b60a43583811161013657610771903690600401610d27565b60c43584811161013657610789903690600401610d27565b60e435858111610136576107a1903690600401610d27565b61010435868111610136576107ba903690600401610d27565b9061012435878111610136576107d4903690600401610d27565b9261014435888111610136576107ee903690600401610d27565b946101643589811161013657610808903690600401610d27565b96610184358a811161013657610822903690600401610d27565b986101c4359a8b116101365761085a6100cc60208f9d610846903690600401610d27565b9d8160405193828580945193849201610d7e565b610b06578c9b8e60206040519e8f9061087282610ce8565b8152015260408d015260608c015260808b015260a08a015260c089015260e08801526101008701526101208601526101408501526101608401526101808301526101a4356101a08301526101c082015260006101e0820152600061020082015260006102208201526000610240820152600f60405160208185516108f98183858a01610d7e565b8101600181520301902061090e835182610e00565b61091f602084015160018301610e00565b610930604084015160028301610e00565b610941606084015160038301610e00565b610952608084015160048301610e00565b61096360a084015160058301610e00565b61097460c084015160068301610e00565b61098560e084015160078301610e00565b61099761010084015160088301610e00565b6109a961012084015160098301610e00565b6109bb610140840151600a8301610e00565b6109cd610160840151600b8301610e00565b6109df610180840151600c8301610e00565b6101a0830151600d8201556109fc6101c0840151600e8301610e00565b01906101e0810151151590825461ff00610200830151151560081b169060ff63ff00000061024062ff0000610220870151151560101b16950151151560181b1694169063ffffffff19161717171790556040516020818451610a618183858901610d7e565b8101600281520301902080549168010000000000000000831015610af05760018301808355831015610ada57610aa781610ab294610aac94600052602060002001610e00565b610f10565b91610f10565b907f05c683c8ef124ed98b107dcf80c644abc011626816b5b3a73e3f6d518c0cd778600080a3005b634e487b7160e01b600052603260045260246000fd5b634e487b7160e01b600052604160045260246000fd5b60405162461bcd60e51b815260206004820152600e60248201526d416c72656164792065786973747360901b6044820152606490fd5b34610136576020806003193601126101365767ffffffffffffffff6004358181116101365782610b73610b86923690600401610d27565b8160405193828580945193849201610d7e565b810160028152030190208054918211610af057829060405192610bae838260051b0185610d05565b8084528284018092600052836000206000915b838310610c285750505050604051918083019381845251809452604083019360408160051b85010192916000955b828710610bfc5785850386f35b909192938280610c18600193603f198a82030186528851610da1565b9601920196019592919092610bef565b6001868192610c39859a999a610f6d565b815201920192019190959495610bc1565b346101365760203660031901126101365760043567ffffffffffffffff811161013657610c7e610cc1913690600401610d27565b600f610ca260206040516100e36100dc8651928481818a01956100cc818389610d7e565b81016001815203019020016201000062ff000019825416179055610f10565b7f4e4003378fe790a19a351b9848e06179b5d6e7a3262a28cfc05f8bacba35857a600080a2005b610260810190811067ffffffffffffffff821117610af057604052565b90601f8019910116810190811067ffffffffffffffff821117610af057604052565b81601f820112156101365780359067ffffffffffffffff8211610af05760405192610d5c601f8401601f191660200185610d05565b8284526020838301011161013657816000926020809301838601378301015290565b60005b838110610d915750506000910152565b8181015183820152602001610d81565b90602091610dba81518092818552858086019101610d7e565b601f01601f1916010190565b90600182811c92168015610df6575b6020831014610de057565b634e487b7160e01b600052602260045260246000fd5b91607f1691610dd5565b919091825167ffffffffffffffff8111610af057610e1e8254610dc6565b601f8111610ec8575b50602080601f8311600114610e64575081929394600092610e59575b50508160011b916000199060031b1c1916179055565b015190503880610e43565b90601f198316958460005282600020926000905b888210610eb057505083600195969710610e97575b505050811b019055565b015160001960f88460031b161c19169055388080610e8d565b80600185968294968601518155019501930190610e78565b600083815260208120601f840160051c81019260208510610f06575b601f0160051c01915b828110610efb575050610e27565b818155600101610eed565b9092508290610ee4565b610f2890602060405192828480945193849201610d7e565b810103902090565b15610f3757565b60405162461bcd60e51b815260206004820152600e60248201526d139bdd081c9959da5cdd195c995960921b6044820152606490fd5b9060405191826000825492610f8184610dc6565b908184526001948581169081600014610ff05750600114610fad575b5050610fab92500383610d05565b565b9093915060005260209081600020936000915b818310610fd8575050610fab93508201013880610f9d565b85548884018501529485019487945091830191610fc0565b915050610fab94506020925060ff191682840152151560051b8201013880610f9d56fea2646970667358221220b4df53de1ee73d4138a1d85abe25c2e8a559cf4859ab2f0e0393a6b6113cc2e364736f6c63430008140033",
  "linkReferences": {},
  "deployedLinkReferences": {}
}